:100AA800454E5445522050415353574F52443A00F3
:100AB800545255452E2E2E005761726E696E672E60
:100AC8002E2E004572726F722E2E2E003132333464
:080AD80035363738392A302386
:080BAA00060E31343130303009
:100B0400E4FDFCC3ED9FEC9E5015E4FBFA0BBB0027
:0F0B1400010AEB647B4A70F50DBD00010C80E413
:010B230022AF
:0B0B9F00EF1FAC0670011E4C70F62228
:030B5900120B2458
:100B5C00D2A27F037E00120B9FC2A27F327E0002C4
:020B6C000B9FDD
:100B2400EF1392A3EFC3131392A4EF1313543F13C1
:0C0B340092A5EF131313541F1392A62276
:100B8100AD07EDC4540FFF120B59AF05120B240230
:020B91000B5CFB
:0C0B93007F01120B817F0A7E00020B9F85
:100A2800E4FF120B247F147E00120B04C2A0C2A1A3
:100A38007F03120B597F057E00120B04120B5C7F9B
:100A4800647E00120B9F120B5C7F02120B24120BA8
:100A58005C7F28120B817F0C120B817F06120B81A1
:050A68007F01020B817B
:040AE0007D01E4FFB1
:100AE400ED7006EF2480FB8004EF24C0FB7FE87EDA
:100AF40003120B9FAF03120B817F327E00020B9F08
:080BB300D2A0120B81C2A022A6
:100B6E001209E2FF600C120BB3740129F9E43AFA90
:030B7E0080EE22E4
:100B4000790AAF0119EF6010D2B77FC87E00120B8F
:080B500004C2B7120B0480EA95
:010B5800227A
:1008BA0075900F7F027E00120B9FAF90EF640F704E
:1008CA0003020953E4F9E9C39403748094805079CC
:1008DA00E92404FFF87401088002C333D8FCF4F554
:1008EA00907F017E00120B04E4FDEDC39404748032
:1008FA00948050517E007401A805088005C333CE48
:10090A0033CED8F9FFAC90ECFBEF5B70357E007408
:10091A0001A805088005C333CE33CED8F9FFAC90C1
:10092A00ECFBEF5B60E7ED75F003A424D4F582E4F9
:10093A00340AF583E58229F582E43583F583E49365
:0B094A00FF220D80A5090208D07F00ED
:01095500227F
:060A6D008B178A1889199D
:100A7300E4FFEFC39406748094805026AB1AAA1B3C
:100A8300A91C8F827583001209FBFEAB17AA18A954
:100A9300198F827583001209FB6E60037F00220F9A
:040AA30080D07F017F
:010AA700222C
:10080000E4F514F515F516120A28C2B6C2B7120B94
:1008100093E4FDFF120AE47BFF7A0A79A8120B6EBB
:10082000120AE0E4F515C3E515940674809480502F
:10083000231208BA8F14E51460EC7D01AF15120A7B
:10084000E4AF14120BB374082515F8A614E4F514DC
:10085000051580D2751A00751B00751C087B007A7F
:1008600000790E120A6DEF6019120AE07BFF7A0A16
:1008700079B8120B6ED2B67FB87E0B120B04C2B6DB
:10088000801C0516C3E516940374809480401512ED
:100890000AE07BFF7A0A79C0120B6E120B40E4F576
:1008A0001602080E120AE07BFF7A0A79CB120B6E51
:0A08B0007FF47E01120B0402080E13
:030000000209569C
:0C095600787FE4F6D8FD75811C02099D35
:1009E200BB010689828A83E0225002E722BBFE0213
:0909F200E32289828A83E4932246
:1009FB00BB010CE58229F582E5833AF583E02250B1
:100A0B0006E92582F8E622BBFE06E92582F8E222FA
:0D0A1B00E58229F582E5833AF583E4932214
:10096200020800E493A3F8E493A34003F68001F2A3
:1009720008DFF48029E493A3F85407240CC8C33396
:10098200C4540F4420C8834004F456800146F6DF65
:10099200E4800B0102040810204080900BAAE47E40
:1009A200019360BCA3FF543F30E509541FFEE4935A
:1009B200A360010ECF54C025E060A840B8E493A321
:1009C200FAE493A3F8E493A3C8C582C8CAC583CA4C
:1009D200F0A3C8C582C8CAC583CADFE9DEE780BE04
:010BB2000042
:00000001FF
